{
  "contractName": "TodoList",
  "abi": [
    {
      "anonymous": false,
      "inputs": [
        {
          "indexed": false,
          "internalType": "address",
          "name": "user",
          "type": "address"
        },
        {
          "indexed": false,
          "internalType": "uint256",
          "name": "taskId",
          "type": "uint256"
        }
      ],
      "name": "TaskCreated",
      "type": "event"
    },
    {
      "anonymous": false,
      "inputs": [
        {
          "indexed": false,
          "internalType": "address",
          "name": "user",
          "type": "address"
        },
        {
          "indexed": false,
          "internalType": "uint256",
          "name": "taskId",
          "type": "uint256"
        }
      ],
      "name": "TaskFinished",
      "type": "event"
    },
    {
      "inputs": [
        {
          "internalType": "string",
          "name": "content",
          "type": "string"
        }
      ],
      "name": "createTask",
      "outputs": [],
      "stateMutability": "nonpayable",
      "type": "function"
    },
    {
      "inputs": [
        {
          "internalType": "uint256",
          "name": "taskId",
          "type": "uint256"
        }
      ],
      "name": "finishTask",
      "outputs": [],
      "stateMutability": "nonpayable",
      "type": "function"
    },
    {
      "inputs": [],
      "name": "retrieveTasks",
      "outputs": [
        {
          "components": [
            {
              "internalType": "uint256",
              "name": "id",
              "type": "uint256"
            },
            {
              "internalType": "string",
              "name": "content",
              "type": "string"
            },
            {
              "internalType": "bool",
              "name": "isCompleted",
              "type": "bool"
            }
          ],
          "internalType": "struct TodoList.Task[]",
          "name": "",
          "type": "tuple[]"
        }
      ],
      "stateMutability": "view",
      "type": "function"
    }
  ],
  "bytecode": "0x608060405234801561001057600080fd5b50610a2d806100206000396000f3fe608060405234801561001057600080fd5b50600436106100415760003560e01c8063111002aa146100465780635e46cdce14610062578063842178b214610080575b600080fd5b610060600480360381019061005b91906105e4565b61009c565b005b61006a6101d3565b60405161007791906107fb565b60405180910390f35b61009a60048036038101906100959190610849565b610328565b005b60008060003373ffffffffffffffffffffffffffffffffffffffff1673ffffffffffffffffffffffffffffffffffffffff16815260200190815260200160002090506000816000015490508160010160405180606001604052808381526020018581526020016000151581525090806001815401808255809150506001900390600052602060002090600302016000909190919091506000820151816000015560208201518160010190805190602001906101589291906103e7565b5060408201518160020160006101000a81548160ff02191690831515021790555050507fb1c0ef93ef5afc0800a5789b004fdaf5931873276c7ccb409e7d1a310906886a33826040516101ac9291906108c6565b60405180910390a18160000160008154809291906101c99061091e565b9190505550505050565b60606000803373ffffffffffffffffffffffffffffffffffffffff1673ffffffffffffffffffffffffffffffffffffffff168152602001908152602001600020600101805480602002602001604051908101604052809291908181526020016000905b8282101561031f57838290600052602060002090600302016040518060600160405290816000820154815260200160018201805461027390610996565b80601f016020809104026020016040519081016040528092919081815260200182805461029f90610996565b80156102ec5780601f106102c1576101008083540402835291602001916102ec565b820191906000526020600020905b8154815290600101906020018083116102cf57829003601f168201915b505050505081526020016002820160009054906101000a900460ff16151515158152505081526020019060010190610236565b50505050905090565b60008060003373ffffffffffffffffffffffffffffffffffffffff1673ffffffffffffffffffffffffffffffffffffffff168152602001908152602001600020600101828154811061037d5761037c6109c8565b5b9060005260206000209060030201905060018160020160006101000a81548160ff0219169083151502179055507fe07184348473ea04ab072c26b66729fae2bda092c57e5785516342dee19393eb33836040516103db9291906108c6565b60405180910390a15050565b8280546103f390610996565b90600052602060002090601f016020900481019282610415576000855561045c565b82601f1061042e57805160ff191683800117855561045c565b8280016001018555821561045c579182015b8281111561045b578251825591602001919060010190610440565b5b509050610469919061046d565b5090565b5b8082111561048657600081600090555060010161046e565b5090565b6000604051905090565b600080fd5b600080fd5b600080fd5b600080fd5b6000601f19601f8301169050919050565b7f4e487b7100000000000000000000000000000000000000000000000000000000600052604160045260246000fd5b6104f1826104a8565b810181811067ffffffffffffffff821117156105105761050f6104b9565b5b80604052505050565b600061052361048a565b905061052f82826104e8565b919050565b600067ffffffffffffffff82111561054f5761054e6104b9565b5b610558826104a8565b9050602081019050919050565b82818337600083830152505050565b600061058761058284610534565b610519565b9050828152602081018484840111156105a3576105a26104a3565b5b6105ae848285610565565b509392505050565b600082601f8301126105cb576105ca61049e565b5b81356105db848260208601610574565b91505092915050565b6000602082840312156105fa576105f9610494565b5b600082013567ffffffffffffffff81111561061857610617610499565b5b610624848285016105b6565b91505092915050565b600081519050919050565b600082825260208201905092915050565b6000819050602082019050919050565b6000819050919050565b61066c81610659565b82525050565b600081519050919050565b600082825260208201905092915050565b60005b838110156106ac578082015181840152602081019050610691565b838111156106bb576000848401525b50505050565b60006106cc82610672565b6106d6818561067d565b93506106e681856020860161068e565b6106ef816104a8565b840191505092915050565b60008115159050919050565b61070f816106fa565b82525050565b600060608301600083015161072d6000860182610663565b506020830151848203602086015261074582826106c1565b915050604083015161075a6040860182610706565b508091505092915050565b60006107718383610715565b905092915050565b6000602082019050919050565b60006107918261062d565b61079b8185610638565b9350836020820285016107ad85610649565b8060005b858110156107e957848403895281516107ca8582610765565b94506107d583610779565b925060208a019950506001810190506107b1565b50829750879550505050505092915050565b600060208201905081810360008301526108158184610786565b905092915050565b61082681610659565b811461083157600080fd5b50565b6000813590506108438161081d565b92915050565b60006020828403121561085f5761085e610494565b5b600061086d84828501610834565b91505092915050565b600073ffffffffffffffffffffffffffffffffffffffff82169050919050565b60006108a182610876565b9050919050565b6108b181610896565b82525050565b6108c081610659565b82525050565b60006040820190506108db60008301856108a8565b6108e860208301846108b7565b9392505050565b7f4e487b7100000000000000000000000000000000000000000000000000000000600052601160045260246000fd5b600061092982610659565b91507fffffffffffffffffffffffffffffffffffffffffffffffffffffffffffffffff82141561095c5761095b6108ef565b5b600182019050919050565b7f4e487b7100000000000000000000000000000000000000000000000000000000600052602260045260246000fd5b600060028204905060018216806109ae57607f821691505b602082108114156109c2576109c1610967565b5b50919050565b7f4e487b7100000000000000000000000000000000000000000000000000000000600052603260045260246000fdfea26469706673582212203e091324a6ec707afc714c5b5e2fcd5fd009faa12c54cc88adf08edcb89ad7f964736f6c634300080c0033",
  "immutableReferences": {},
  "source": "// SPDX-License-Identifier: MIT\npragma solidity ^0.8.0;\n\ncontract TodoList {\n\n    struct Task {\n        uint id;\n        string content;\n        bool isCompleted;\n    }\n\n    struct User {\n        uint totalTasks;\n        Task[] tasks;\n    }\n\n    event TaskCreated(address user, uint taskId);\n    event TaskFinished(address user, uint taskId);\n\n\n    mapping(address => User) users;\n\n    function createTask(string memory content) public {\n        User storage user = users[msg.sender];\n        uint taskId = user.totalTasks;\n\n        user.tasks.push( Task(taskId, content, false) ); \n\n        emit TaskCreated(msg.sender, taskId);\n        user.totalTasks++;\n\n    }\n\n    function finishTask(uint taskId) public {\n        Task storage task = users[msg.sender].tasks[taskId];\n\n        task.isCompleted = true;\n        emit TaskFinished(msg.sender, taskId);\n    }\n\n    function retrieveTasks() public view returns( Task[] memory ) {\n        return users[msg.sender].tasks;\n    }\n\n\n}\n\n",
  "sourcePath": "/home/brymer-meneses/Projects/blockchain-todolist/contracts/TodoList.sol",
  "compiler": {
    "name": "solc",
    "version": "0.8.12+commit.f00d7308.Emscripten.clang"
  },
  "schemaVersion": "3.4.5",
  "updatedAt": "2022-03-09T03:37:55.233Z",
  "devdoc": {
    "kind": "dev",
    "methods": {},
    "version": 1
  },
  "userdoc": {
    "kind": "user",
    "methods": {},
    "version": 1
  }
}